{
  "contractName": "HelloWorld",
  "abi": [
    {
      "constant": true,
      "inputs": [],
      "name": "SayHello",
      "outputs": [
        {
          "internalType": "string",
          "name": "",
          "type": "string"
        }
      ],
      "payable": false,
      "stateMutability": "pure",
      "type": "function"
    }
  ],
  "bytecode": "0x608060405234801561001057600080fd5b50610101806100206000396000f3fe6080604052348015600f57600080fd5b506004361060285760003560e01c80633acb315014602d575b600080fd5b603360a5565b6040805160208082528351818301528351919283929083019185019080838360005b83811015606b5781810151838201526020016055565b50505050905090810190601f16801560975780820380516001836020036101000a031916815260200191505b509250505060405180910390f35b60408051808201909152600d81526c48656c6c6f2c20776f726c642160981b60208201529056fea265627a7a72315820ce74c0778247ec1933c2d46cec41fa3b7044400081e6cd4a07cd96ebfbe97e6164736f6c63430005100032",
  "source": "// SPDX-License-Identifier: UNLICENSED\npragma solidity ^0.5.16;\n\ncontract HelloWorld {\n    function SayHello() public pure returns (string memory) {\n        return \"Hello, world!\";\n    }\n}",
  "sourcePath": "/Users/solo12zw74/EtheriumProjects/HelloWorld/contracts/HelloWorld.sol",
  "compiler": {
    "name": "solc",
    "version": "0.5.16+commit.9c3226ce.Emscripten.clang"
  },
  "schemaVersion": "3.4.11",
  "updatedAt": "2023-02-15T03:37:26.245Z",
  "networkType": "ethereum",
  "devdoc": {
    "methods": {}
  },
  "userdoc": {
    "methods": {}
  }
}